:100000000C9444000C9461000C9461000C94610009
:100010000C9461000C9461000C9461000C946100DC
:100020000C9461000C9461000C9461000C946100CC
:100030000C9461000C9461000C94C0060C94610057
:100040000C9461000C9461000C9461000C941307F3
:100050000C946100F20206030C03120318031E0342
:100060002403310337035703DF0305041B042B0468
:100070003F04500461047C04D205DA05EF05F9055C
:1000800003060D0617061B0611241FBECFE5D4E09C
:10009000DEBFCDBF11E0A0E6B0E0E2E4F0E102C0D7
:1000A00005900D92A634B107D9F721E0A6E4B1E09E
:1000B00001C01D92AA37B207E1F70E9432050C94E5
:1000C0001F080C94000081B3837E81BB0895CF93F9
:1000D000DF931F92CDB7DEB71982843129F08831C2
:1000E000C9F08C30A9F402C083E017C087E893E11F
:1000F0000197F1F700C0000089818F5F89838981B2
:10010000883C51F080B38C718C3081F385E005C060
:1001100080E003C081E001C086E00F90DF91CF91C5
:10012000089595B3282F207F9F70922B95BBAA9A94
:1001300095E09A95F1F70000AA98829595B3807F93
:100140009F70892B85BBAA9A85E08A95F1F70000FC
:10015000AA98089584B38F7084BB85B3806F85BBE4
:10016000A99AA898AA9A85E08A95F1F7000083B326
:10017000AA98AA9A95E09A95F1F7000093B3AA98E5
:1001800087FDF0CFA99884B3806F84BB08959AE669
:100190009A95F1F700C0A89895B3807F9F70892B3E
:1001A00085BBAA9A85E08A95F1F70000AA98089580
:1001B000CF93DF931F92CDB7DEB789830E94AA0049
:1001C000A89889810F90DF91CF910C949100CF93E3
:1001D000DF931F92CDB7DEB789830E94AA00A89A49
:1001E00089810F90DF91CF910C94910084B3806F3F
:1001F00084BBA09AA19AA29A2FEF89EF90E0215098
:1002000080409040E1F700C0000080E30E94C700FA
:100210008FE19EE40197F1F700C0000080E30E94A7
:10022000C7008FE99FE00197F1F700C0000080E36D
:100230000E94C70088E20E94C70088E20E94D8009E
:100240008CE00E94D80081E00E94D8008FE99FE0F6
:100250000197F1F700C0000086E00C94D800CF931E
:10026000DF93D42F61708F7090E4699F800D11240B
:1002700080680E94D800C0E0CD1729F080E20E947B
:10028000E700CF5FF9CFDF91CF910895CF93DF9350
:10029000EC018991882319F00E94E700FACFDF91E1
:1002A000CF910895CF92DF92EF92FF921F93CF9359
:1002B000DF9300D000D01F92CDB7DEB79C01E62FB0
:1002C000892B29F010E09AE0E92EF12C1BC080E385
:1002D0000F900F900F900F900F90DF91CF911F9183
:1002E000FF90EF90DF90CF900C94E700EE3249F44E
:1002F0009EE21F5F1430B9F061157105A1F0113055
:10030000A9F39A83CC24C394D12CCC0EDD1EC10E4C
:10031000D11CC901B7010E94EB07805DD6018C9307
:100320009B019A81E6CF9A83112359F01150E1E0A5
:10033000F0E0EC0FFD1FE10FF11D80810E94E7004E
:10034000F3CF0F900F900F900F900F90DF91CF9100
:100350001F91FF90EF90DF90CF90089587B1806F4D
:1003600087B986B18B6886B9089583B7856083BFE6
:1003700012BE89B7826089BF84EF8CBF0895CF9386
:10038000DF9300D0CDB7DEB79C0164EC79E00E942A
:10039000EB07FB01EE0FFF1FEF59FF4F80819181AB
:1003A0009A83898380914E0190914F01892B49F066
:1003B00089819A818217930720F489819A81281B69
:1003C000390BC90164E670E00E94EB07CB010F9086
:1003D0000F90DF91CF9108950F931F93CF93DF93E9
:1003E000C82FD62F8A0144E00E942F01CF708D2F95
:1003F000817090E4899FC00D11248C2F80680E9429
:10040000D800D11102C06EE201C060E2C801DF91E4
:10041000CF911F910F910C945201CF93DF93C82F6E
:10042000D62F44E00E942F018C2F8F70D17090E462
:10043000D99F800D112480680E94D8000E94610716
:1004400060E290E00E94520185E2DF91CF910C942E
:10045000E700CF92DF92EF92FF920F931F93CF931B
:10046000DF93C82FD62FFA012CE330E0CA01B9017F
:100470000E94EB078C01CF0160E17EE00E94EB0758
:100480007B01B9010E94EB076B010115110529F4ED
:1004900048E06D2F8C2F0E942F01CF70D1708C2FD0
:1004A00090E4D99F800D112480680E94D80060E2FA
:1004B000C7010E9452018AE30E94E70060E2C60180
:1004C0000E9452018AE30E94E70060E2C801DF91C6
:1004D000CF911F910F91FF90EF90DF90CF900C94F0
:1004E00052010F931F93CF93DF93182F062FEA012A
:1004F00040E10E942F01812F8F70017090E4099FCD
:10050000800D112480680E94D800C530D105A9F063
:1005100040F4C330D10571F02497E9F48EE790E000
:1005200014C0C730D10579F058F02897A1F48FEAAC
:1005300090E00BC087E790E008C08BE890E005C032
:1005400088E990E002C082EA90E0DF91CF911F91AC
:100550000F910C944601DF91CF911F910F91089557
:10056000CF93DF93CAB52BB5D0E0D22B68177907AC
:1005700020F4892B61F021970AC08617970738F479
:100580000B9728F0CF3F83E0D80708F42196CE01DF
:100590000E945E07CE01DF91CF910895413019F09E
:1005A000433031F008956817790728F001960895CF
:1005B000009709F001970895CF93C82F81E00E941A
:1005C000D80083EF91E00197F1F700C000008C2F75
:1005D00090E08930910508F052C0FC01E65DFF4FC4
:1005E0000C94FF0780E80E94D8008FEB90E00E94F7
:1005F000460180EC0E94D80085E191E00E9446010E
:1006000088E80E94D80082EC90E036C080E80E9422
:10061000D80085EC90E030C080E80E94D80086EDDC
:1006200090E02AC080EC0E94D80086EE90E024C0C2
:1006300080EC0E94D8008FEE90E01EC080E80E94FF
:10064000D8008BEF90E018C080E80E94D80087E0C7
:1006500091E00E94460180EC0E94D80080E191E088
:100660000BC080E80E94D80088E191E005C080E8D6
:100670000E94D8008AE291E0CF910C944601CF917C
:100680000895EF92FF920F931F93CF93DF9300D0C3
:1006900000D0CDB7DEB790E08930910508F041C1B8
:1006A0007A018B01FC01ED5CFF4F0C94FF07FA010E
:1006B0008081882329F08091490190914A0104C0EA
:1006C00080914701909148019A838983F701808145
:1006D000811102C08EE001C08DE08C838C81F80115
:1006E000E80FF11DE80FF11D2081318189819A8188
:1006F0002817390781F08C81F801E80FF11DE80F08
:10070000F11D89819A819183808349815A8161E0B9
:1007100088E00E942902F80126893789828593851D
:100720002817390751F082859385978B868B4285F0
:10073000538560E082E00E94EC01F801248935894C
:100740008085918528173907C9F080859185958B1B
:10075000848B82EC0E94D800F7018081811102C055
:100760008DE201C08BE28B838B810E94E700F80150
:100770004085518561E083E00E94EC01F801208D05
:10078000318D848595852817390779F0848595857D
:10079000918F808F4485558560E08AE00E940D022C
:1007A000F801848595850E945E07F7019381828117
:1007B000981709F4B6C0828183838EE8AAC0FA0133
:1007C00094818081981709F4ACC08081848349E0CA
:1007D00061E080E00E942F0180EC0E94D800F701C8
:1007E0008081882349F088EB90E00E9446018FB514
:1007F0008F7B8FBD969895C08DEF90E00E9446014B
:100800008FB580648FBD969A8CC0FB0122A133A165
:10081000868597852817390709F483C086859785CB
:1008200093A382A3468557854E5F5F4F61E080E0CA
:100830000E94710276C0FB012289338982819381F3
:100840002817390709F46DC082819381938B828BBD
:10085000428153810FC0FB01268D378D84819581A4
:100860002817390709F45DC084819581978F868F99
:100870004481558160E080E00E94EC0152C0FB01A0
:1008800020A131A1868197812817390709F449C031
:100890008681978191A380A34681578161E0EBCF48
:1008A000FB01208931898081918128173907C9F19D
:1008B00080819181918B808B4081518161E087E0C3
:1008C000DBCFFA0195818181981759F18181858368
:1008D00049E061E080E00E942F0180EC0E94D80096
:1008E000F7018181882319F08BE391E002C083E254
:1008F00091E00E94460115C0FA0193818281981708
:1009000081F08281838343E061E080E00E942F01D7
:1009100080EC0E94D800F701828160E290E00E94A2
:1009200052010F900F900F900F90DF91CF911F9178
:100930000F91FF90EF900895FB01DC015096849693
:1009400011961C921E921296A817B907C9F79081AA
:1009500081E0911180E08483918181E0911180E0B8
:10096000858313820895FC018081882329F08FB547
:100970008F7B8FBD969808958FB580648FBD969AB2
:100980000895CF93DF93FC012281222309F467C0ED
:10099000EC018081E0914601882309F447C08091F1
:1009A000490190914A0124E0E29FF0011124E05BAB
:1009B000FE4F9183808310924A01109249018A81EF
:1009C00081508A838EE40E94A1078091460190E0C5
:1009D00001960E94A50783E40E94A107E0914601C9
:1009E00084E0E89FF0011124E05BFE4F808191815B
:1009F0000E94A50784E40E94A107E091460124E03B
:100A0000E29FF0011124E05BFE4F828193810E94FE
:100A1000A507809146018F5F809346018A818111ED
:100A200015C080E090E00E945E0710C080914701F1
:100A30009091480124E0E29FF0011124E05BFE4F19
:100A4000938382831092480110924701988181E03C
:100A500089278883CE01DF91CF910C94B304DF9175
:100A6000CF910895CF93DF93CDB7DEB7E2970FB65E
:100A7000F894DEBF0FBECDBF1AAA19AA7E0185E287
:100A8000E80EF11CF0927901E09278011DA221E0BC
:100A90002EA382E08FA388E790E09A8389838FE07A
:100AA00090E09C838B838AE090E09E838D8384E634
:100AB00090E098878F834AEF50E05E874D871C86D1
:100AC0001B861A86198641E050E0588B4F8718AA7A
:100AD0002FA79CA78BA70E9499078E9AC7010E94F7
:100AE000B3040E94F6000E94AE010E94B5010E946C
:100AF00063000E9454078D859E850E945E07B701A2
:100B0000CE0101960E949C04369A7894BB24B3943B
:100B100082E0A82ECC24C394D12C2BE0922E80B35B
:100B20008C718EA78AA9863009F492C08EA58C316B
:100B300009F48EC08EA50E9467008AAB80914B019C
:100B400090914C0105969CA78BA783E294EF0197A7
:100B5000F1F700C000008AA9853019F0863071F0E5
:100B600014C088A9813069F038F0823061F48F8533
:100B700098898E5F88AB80C0B8AA7EC088A984306F
:100B800010F018AA79C0A8AA77C0E8A90E2F10E023
:100B9000F8013197E830F10508F06EC0E45CFF4FD2
:100BA0000C94FF078DA18B258DA380E092E00E941D
:100BB0005E0762C04AA98F85988966E070E00E944E
:100BC000CE02988B8F878F859889079729F08F851C
:100BD0009889892B09F050C0D88ACF864DC04AA980
:100BE0008B819C8160EF70E00E94CE029C838B839E
:100BF00043C04AA98D819E8160EF70E00E94CE02C1
:100C00009E838D8339C04AA98F81988568EE73E0F1
:100C10000E94CE0298878F832FC04AA989819A812A
:100C20006EEF73E00E94CE029A83898325C08EA165
:100C30008B258EA321C04AA98FA16AE070E090E0C5
:100C40000E94CE028FA38FA18B30B1F4BFA214C03B
:100C50008EA58C3189F488A9882351F020914B010D
:100C600030914C018BA59CA58217930708F418AA14
:100C70008AA9863009F41AAA80914D01843608F4B5
:100C800069C080914E0190914F010E94BF019093E5
:100C90004F0180934E0189A9882319F08130F1F02A
:100CA0004BC0B9AA80914E0190914F019C878B87D0
:100CB0008EA1882309F440C02B853C858D819E81BF
:100CC0008217930738F42B853C858B819C812817EC
:100CD000390790F1C7010E94C1042EC080914E01D6
:100CE00090914F019A8789878EA1882321F18DA148
:100CF000811102C083E001C080E08DA729853A857B
:100D00008DA5FE013196E80FF11DE80FF11D8081E0
:100D100091812817390779F08DA5FE013196E80FEA
:100D2000F11DE80FF11D6081718189859A850E940E
:100D3000B0029E878D8719AA87B1892587B993E567
:100D40009A95F1F7000010924F0110924E01109207
:100D50004D01369A9FA588A9981751F088A98FA7A9
:100D6000B701CE0101960E949C0488A90E94DC0272
:100D700088A9A701BE016F5F7F4F0E944103CFCEBC
:100D80001F920F920FB60F9211242F933F938F93C0
:100D90009F93CF93DF9300D0CDB7DEB71A8219822D
:100DA00084B1881F8827881F90E09A83898395B132
:100DB00029813A81892F90E0880F991F822B932BEC
:100DC0009A8389832F9B0CC089819A81809521E029
:100DD00092279A83898389819A8101969A8389834C
:100DE00089819A8120914E0130914F01820F931F8A
:100DF00090934F0180934E0180914D018F5F8093BE
:100E00004D0180914D01843608F4369A0F900F9071
:100E1000DF91CF919F918F913F912F910F900FBEB6
:100E20000F901F9018951F920F920FB60F921124DA
:100E30008F939F93EF93FF938091600081508093F5
:100E4000600080916000811126C084E08093600082
:100E500080914B0190914C01019690934C018093AD
:100E60004B01E0917801F09179018081882351F064
:100E70008091490190914A01019690934A01809393
:100E8000490109C0809147019091480101969093D2
:100E9000480180934701FF91EF919F918F910F90AF
:100EA0000FBE0F901F9018958D9A8FB583688FBDD8
:100EB0008EB589608EBD1BBC1ABC08959BBD8ABDD2
:100EC0000895CF93DF9300D000D0CDB7DEB719825D
:100ED0001A821B821C822AB58BB549815A816B818B
:100EE0007C8130E0F901F82BCF01092E000CAA0B10
:100EF000BB0B842B952BA62BB72B89839A83AB83B3
:100F0000BC8329813A814B815C81A4E6B0E00E94D8
:100F10000508DC01CB012AE0B695A7959795879542
:100F20002A95D1F70F900F900F900F90DF91CF91EE
:100F3000089510BC89E189B988E08AB986E880BD46
:100F400008955D9BFECF8CB90895EF92FF921F9399
:100F5000CF93DF9300D000D01F92CDB7DEB70097BC
:100F600069F480E30F900F900F900F900F90DF9136
:100F7000CF911F91FF90EF900C94A10720E03AE0F1
:100F8000E32EF12C11E0120FE1E0F0E0EC0FFD1F79
:100F9000E20FF11DB7010E94EB078083CB01212FE7
:100FA000009781F7112361F01150E1E0F0E0EC0FC0
:100FB000FD1FE10FF11D8081805D0E94A107F2CF2E
:100FC0000F900F900F900F900F90DF91CF911F9186
:100FD000FF90EF900895AA1BBB1B51E107C0AA1F09
:100FE000BB1FA617B70710F0A61BB70B881F991FCA
:100FF0005A95A9F780959095BC01CD010895EE0F03
:10100000FF1F0590F491E02D09940E941008A59F00
:10101000900DB49F900DA49F800D911D11240895F3
:10102000A29FB001B39FC001A39F700D811D112429
:10103000911DB29F700D811D1124911D0895F8948A
:02104000FFCFE0
:1010420004640078009600B400C800FA005E017CD7
:1010520001C20158028A022055206F66660020559F
:10106200206469736368617267650020492064695E
:101072007363686172676500204920636861726703
:101082006500204D6F64652041206F72204D002065
:101092004E2044697363685F4368617267650056F6
:1010A2003D004D3D0043484152474520444953438A
:1010B20048415247450057494E444F5753205345E4
:1010C2005454494E470055204E6F726D616C005565
:1010D20020446973636861726765004920446973DB
:1010E200636861726765004920D168617267650053
:1010F2004E6F726D2E493D004175746F6D617420A3
:101102006F72204D616E75616C004E20446973638D
:1011120068617267654368617267004175746F6DDB
:0611220061746963000026
:00000001FF
