:100000000C942A000C9447000C9447000C94470071
:100010000C9447000C9447000C9447000C94470044
:100020000C9447000C9447000C9447000C94470034
:100030000C9447000C9447000C945A000C94470011
:100040000C9447000C9447000C9447000C94AD00AE
:100050000C94470011241FBECFE5D4E0DEBFCDBF16
:1000600010E0A0E6B0E0E0EEF1E002C005900D92F5
:10007000A236B107D9F720E0A2E6B0E001C01D9298
:10008000A539B207E1F70E9449000C94EE000C94E8
:10009000000081E087BBC09A83EC99E00197F1F7FB
:1000A00000C00000C09883EC99E00197F1F700C010
:1000B0000000F1CF1F920F920FB60F9211242F93D1
:1000C0003F938F939F93CF93DF9300D0CDB7DEB74D
:1000D0001A82198284B1881F8827881F90E09A832A
:1000E000898395B129813A81892F90E0880F991FE2
:1000F000822B932B9A8389832F9B0CC089819A81B1
:10010000809521E092279A83898389819A8101963B
:100110009A83898389819A812091690030916A004C
:10012000820F931F90936A0080936900809168000A
:100130008F5F8093680080916800843608F4369A57
:100140000F900F90DF91CF919F918F913F912F91C1
:100150000F900FBE0F901F9018951F920F920FB621
:100160000F9211248F939F93EF93FF9380916000E0
:1001700081508093600080916000811126C084E0EE
:100180008093600080916600909167000196909343
:10019000670080936600E0919300F0919400808165
:1001A000882351F0809164009091650001969093AE
:1001B00065008093640009C08091620090916300A3
:1001C00001969093630080936200FF91EF919F915D
:1001D0008F910F900FBE0F901F901895F894FFCF3E
:0201E000040019
:00000001FF
